{
  "_format": "hh-sol-artifact-1",
  "contractName": "CrowdEstate",
  "sourceName": "contracts/CrowdEstate.sol",
  "abi": [
    {
      "inputs": [],
      "stateMutability": "nonpayable",
      "type": "constructor"
    },
    {
      "inputs": [],
      "name": "AmountMustBeGreaterThanZero",
      "type": "error"
    },
    {
      "inputs": [],
      "name": "InsufficientSharesBalance",
      "type": "error"
    },
    {
      "inputs": [],
      "name": "InsufficientSharesToCancel",
      "type": "error"
    },
    {
      "inputs": [],
      "name": "InvalidPropertyId",
      "type": "error"
    },
    {
      "inputs": [],
      "name": "NoBalanceToWithdraw",
      "type": "error"
    },
    {
      "inputs": [],
      "name": "NotEnoughSharesAvailable",
      "type": "error"
    },
    {
      "inputs": [],
      "name": "SentAmountDoesNotMatchShare",
      "type": "error"
    },
    {
      "inputs": [],
      "name": "SharesMustBeGreaterThanZero",
      "type": "error"
    },
    {
      "anonymous": false,
      "inputs": [
        {
          "indexed": true,
          "internalType": "address",
          "name": "previousOwner",
          "type": "address"
        },
        {
          "indexed": true,
          "internalType": "address",
          "name": "newOwner",
          "type": "address"
        }
      ],
      "name": "OwnershipTransferred",
      "type": "event"
    },
    {
      "inputs": [
        {
          "internalType": "string",
          "name": "_name",
          "type": "string"
        },
        {
          "internalType": "string",
          "name": "_location",
          "type": "string"
        },
        {
          "internalType": "string[]",
          "name": "_images",
          "type": "string[]"
        },
        {
          "internalType": "uint256",
          "name": "_shares",
          "type": "uint256"
        }
      ],
      "name": "addProperty",
      "outputs": [],
      "stateMutability": "nonpayable",
      "type": "function"
    },
    {
      "inputs": [
        {
          "internalType": "uint256",
          "name": "_propertyId",
          "type": "uint256"
        }
      ],
      "name": "buyShares",
      "outputs": [],
      "stateMutability": "payable",
      "type": "function"
    },
    {
      "inputs": [
        {
          "internalType": "uint256",
          "name": "_propertyId",
          "type": "uint256"
        },
        {
          "internalType": "uint256",
          "name": "_share",
          "type": "uint256"
        }
      ],
      "name": "cancelSecondarySellShare",
      "outputs": [],
      "stateMutability": "nonpayable",
      "type": "function"
    },
    {
      "inputs": [],
      "name": "owner",
      "outputs": [
        {
          "internalType": "address",
          "name": "",
          "type": "address"
        }
      ],
      "stateMutability": "view",
      "type": "function"
    },
    {
      "inputs": [
        {
          "internalType": "uint256",
          "name": "",
          "type": "uint256"
        }
      ],
      "name": "properties",
      "outputs": [
        {
          "internalType": "string",
          "name": "name",
          "type": "string"
        },
        {
          "internalType": "string",
          "name": "location",
          "type": "string"
        },
        {
          "internalType": "uint256",
          "name": "price",
          "type": "uint256"
        },
        {
          "internalType": "uint256",
          "name": "shares",
          "type": "uint256"
        },
        {
          "internalType": "uint256",
          "name": "soldShares",
          "type": "uint256"
        }
      ],
      "stateMutability": "view",
      "type": "function"
    },
    {
      "inputs": [],
      "name": "propertyCount",
      "outputs": [
        {
          "internalType": "uint256",
          "name": "",
          "type": "uint256"
        }
      ],
      "stateMutability": "view",
      "type": "function"
    },
    {
      "inputs": [],
      "name": "renounceOwnership",
      "outputs": [],
      "stateMutability": "nonpayable",
      "type": "function"
    },
    {
      "inputs": [
        {
          "internalType": "uint256",
          "name": "_propertyId",
          "type": "uint256"
        },
        {
          "internalType": "uint256",
          "name": "_share",
          "type": "uint256"
        }
      ],
      "name": "secondaryBuyShare",
      "outputs": [],
      "stateMutability": "payable",
      "type": "function"
    },
    {
      "inputs": [
        {
          "internalType": "uint256",
          "name": "_propertyId",
          "type": "uint256"
        },
        {
          "internalType": "uint256",
          "name": "_share",
          "type": "uint256"
        }
      ],
      "name": "secondarySellShare",
      "outputs": [],
      "stateMutability": "nonpayable",
      "type": "function"
    },
    {
      "inputs": [
        {
          "internalType": "address",
          "name": "",
          "type": "address"
        },
        {
          "internalType": "uint256",
          "name": "",
          "type": "uint256"
        }
      ],
      "name": "sellShare",
      "outputs": [
        {
          "internalType": "uint256",
          "name": "",
          "type": "uint256"
        }
      ],
      "stateMutability": "view",
      "type": "function"
    },
    {
      "inputs": [
        {
          "internalType": "uint256",
          "name": "_propertyId",
          "type": "uint256"
        }
      ],
      "name": "soldPropertyShares",
      "outputs": [
        {
          "internalType": "string",
          "name": "",
          "type": "string"
        }
      ],
      "stateMutability": "view",
      "type": "function"
    },
    {
      "inputs": [
        {
          "internalType": "uint256",
          "name": "",
          "type": "uint256"
        }
      ],
      "name": "tokens",
      "outputs": [
        {
          "internalType": "address",
          "name": "",
          "type": "address"
        }
      ],
      "stateMutability": "view",
      "type": "function"
    },
    {
      "inputs": [
        {
          "internalType": "address",
          "name": "newOwner",
          "type": "address"
        }
      ],
      "name": "transferOwnership",
      "outputs": [],
      "stateMutability": "nonpayable",
      "type": "function"
    },
    {
      "inputs": [],
      "name": "withdraw",
      "outputs": [],
      "stateMutability": "nonpayable",
      "type": "function"
    }
  ],
  "bytecode": "0x60806040523480156200001157600080fd5b5062000032620000266200004060201b60201c565b6200004860201b60201c565b60006004819055506200010c565b600033905090565b60008060009054906101000a900473ffffffffffffffffffffffffffffffffffffffff169050816000806101000a81548173ffffffffffffffffffffffffffffffffffffffff021916908373ffffffffffffffffffffffffffffffffffffffff1602179055508173ffffffffffffffffffffffffffffffffffffffff168173ffffffffffffffffffffffffffffffffffffffff167f8be0079c531659141344cd1fd0a4f28419497f9722a3daafe3b4186f6b6457e060405160405180910390a35050565b614073806200011c6000396000f3fe608060405260043610620000f25760003560e01c80638da5cb5b116200008b578063d1a93d181162000061578063d1a93d1814620002bd578063e6ef399a14620002dd578063f2fde38b1462000321578063f7b10808146200034f57620000f2565b80638da5cb5b146200022f578063b62a8983146200025f578063c361a335146200028d57620000f2565b80634f64b2be11620000cd5780634f64b2be146200015f57806355bd9f3514620001a357806369c83fa114620001d1578063715018a6146200021557620000f2565b806310945c3514620000f7578063360bba5f14620001175780633ccfd60b1462000145575b600080fd5b6200011560048036038101906200010f9190620016a2565b62000397565b005b3480156200012457600080fd5b506200014360048036038101906200013d919062001947565b620005ca565b005b3480156200015257600080fd5b506200015d62000732565b005b3480156200016c57600080fd5b506200018b600480360381019062000185919062001a16565b620007c7565b6040516200019a919062001a8d565b60405180910390f35b348015620001b057600080fd5b50620001cf6004803603810190620001c99190620016a2565b620007fa565b005b348015620001de57600080fd5b50620001fd6004803603810190620001f7919062001adb565b62000a6c565b6040516200020c919062001b33565b60405180910390f35b3480156200022257600080fd5b506200022d62000a91565b005b3480156200023c57600080fd5b506200024762000aa9565b60405162000256919062001a8d565b60405180910390f35b3480156200026c57600080fd5b506200028b6004803603810190620002859190620016a2565b62000ad2565b005b3480156200029a57600080fd5b50620002a562000d83565b604051620002b4919062001b33565b60405180910390f35b620002db6004803603810190620002d5919062001a16565b62000d89565b005b348015620002ea57600080fd5b5062000309600480360381019062000303919062001a16565b62000fb3565b60405162000318919062001bd9565b60405180910390f35b3480156200032e57600080fd5b506200034d600480360381019062000347919062001bfd565b620010ae565b005b3480156200035c57600080fd5b506200037b600480360381019062000375919062001a16565b62001138565b6040516200038e95949392919062001c2f565b60405180910390f35b60008111620003d2576040517f29cd977200000000000000000000000000000000000000000000000000000000815260040160405180910390fd5b600082111580620003e4575060045482115b156200041c576040517f3f7861ea00000000000000000000000000000000000000000000000000000000815260040160405180910390fd5b6000341162000457576040517f5e85ae7300000000000000000000000000000000000000000000000000000000815260040160405180910390fd5b80341462000491576040517f2753509100000000000000000000000000000000000000000000000000000000815260040160405180910390fd5b600060016000848152602001908152602001600020905060006002600085815260200190815260200160002060009054906101000a900473ffffffffffffffffffffffffffffffffffffffff16905060008190508073ffffffffffffffffffffffffffffffffffffffff1663a9059cbb33346040518363ffffffff1660e01b81526004016200052292919062001c9a565b6020604051808303816000875af115801562000542573d6000803e3d6000fd5b505050506040513d601f19601f8201168201806040525081019062000568919062001d04565b50838360060160003373ffffffffffffffffffffffffffffffffffffffff1673ffffffffffffffffffffffffffffffffffffffff1681526020019081526020016000206000828254620005bc919062001d65565b925050819055505050505050565b6000811162000605576040517f29cd977200000000000000000000000000000000000000000000000000000000815260040160405180910390fd5b600460008154809291906200061a9062001da0565b919050555060006001600060045481526020019081526020016000209050848160000190816200064b919062002023565b50838160010190816200065f919062002023565b50828160020190805190602001906200067a92919062001558565b508181600301819055508181600401819055506000816005018190555060008583604051620006a990620015b8565b620006b69291906200215a565b604051809103906000f080158015620006d3573d6000803e3d6000fd5b5090508060026000600454815260200190815260200160002060006101000a81548173ffffffffffffffffffffffffffffffffffffffff021916908373ffffffffffffffffffffffffffffffffffffffff160217905550505050505050565b6200073c6200128e565b6000479050600081116200077c576040517fbbd8170800000000000000000000000000000000000000000000000000000000815260040160405180910390fd5b3373ffffffffffffffffffffffffffffffffffffffff166108fc829081150290604051600060405180830381858888f19350505050158015620007c3573d6000803e3d6000fd5b5050565b60026020528060005260406000206000915054906101000a900473ffffffffffffffffffffffffffffffffffffffff1681565b6000811162000835576040517f29cd977200000000000000000000000000000000000000000000000000000000815260040160405180910390fd5b60008211158062000847575060045482115b156200087f576040517f3f7861ea00000000000000000000000000000000000000000000000000000000815260040160405180910390fd5b6001600083815260200190815260200160002060050154811115620008d0576040517f73eae98100000000000000000000000000000000000000000000000000000000815260040160405180910390fd5b806001600084815260200190815260200160002060060160003373ffffffffffffffffffffffffffffffffffffffff1673ffffffffffffffffffffffffffffffffffffffff168152602001908152602001600020600082825462000935919062001d65565b9250508190555080600360003373ffffffffffffffffffffffffffffffffffffffff1673ffffffffffffffffffffffffffffffffffffffff168152602001908152602001600020600084815260200190815260200160002060008282546200099e9190620021a3565b9250508190555060006002600084815260200190815260200160002060009054906101000a900473ffffffffffffffffffffffffffffffffffffffff16905060008190508073ffffffffffffffffffffffffffffffffffffffff1663a9059cbb33856040518363ffffffff1660e01b815260040162000a1f92919062001c9a565b6020604051808303816000875af115801562000a3f573d6000803e3d6000fd5b505050506040513d601f19601f8201168201806040525081019062000a65919062001d04565b5050505050565b6003602052816000526040600020602052806000526040600020600091509150505481565b62000a9b6200128e565b62000aa7600062001313565b565b60008060009054906101000a900473ffffffffffffffffffffffffffffffffffffffff16905090565b6000811162000b0d576040517f29cd977200000000000000000000000000000000000000000000000000000000815260040160405180910390fd5b60008211158062000b1f575060045482115b1562000b57576040517f3f7861ea00000000000000000000000000000000000000000000000000000000815260040160405180910390fd5b6001600083815260200190815260200160002060060160003373ffffffffffffffffffffffffffffffffffffffff1673ffffffffffffffffffffffffffffffffffffffff1681526020019081526020016000205481111562000be5576040517f01b9e7c300000000000000000000000000000000000000000000000000000000815260040160405180910390fd5b806001600084815260200190815260200160002060060160003373ffffffffffffffffffffffffffffffffffffffff1673ffffffffffffffffffffffffffffffffffffffff168152602001908152602001600020600082825462000c4a9190620021a3565b9250508190555080600360003373ffffffffffffffffffffffffffffffffffffffff1673ffffffffffffffffffffffffffffffffffffffff1681526020019081526020016000206000848152602001908152602001600020600082825462000cb3919062001d65565b9250508190555060006002600084815260200190815260200160002060009054906101000a900473ffffffffffffffffffffffffffffffffffffffff16905060008190508073ffffffffffffffffffffffffffffffffffffffff166323b872dd3330866040518463ffffffff1660e01b815260040162000d3693929190620021de565b6020604051808303816000875af115801562000d56573d6000803e3d6000fd5b505050506040513d601f19601f8201168201806040525081019062000d7c919062001d04565b5050505050565b60045481565b6000341162000dc4576040517f5e85ae7300000000000000000000000000000000000000000000000000000000815260040160405180910390fd5b60008111158062000dd6575060045481115b1562000e0e576040517f3f7861ea00000000000000000000000000000000000000000000000000000000815260040160405180910390fd5b6000600160008381526020019081526020016000209050806004015434826005015462000e3c919062001d65565b111562000e75576040517fac05a03a00000000000000000000000000000000000000000000000000000000815260040160405180910390fd5b60006002600084815260200190815260200160002060009054906101000a900473ffffffffffffffffffffffffffffffffffffffff16905060008190508073ffffffffffffffffffffffffffffffffffffffff1663a9059cbb33346040518363ffffffff1660e01b815260040162000eef92919062001c9a565b6020604051808303816000875af115801562000f0f573d6000803e3d6000fd5b505050506040513d601f19601f8201168201806040525081019062000f35919062001d04565b503483600501600082825462000f4c919062001d65565b92505081905550348360060160003373ffffffffffffffffffffffffffffffffffffffff1673ffffffffffffffffffffffffffffffffffffffff168152602001908152602001600020600082825462000fa6919062001d65565b9250508190555050505050565b606060008211158062000fc7575060045482115b1562000fff576040517f3f7861ea00000000000000000000000000000000000000000000000000000000815260040160405180910390fd5b60006001600084815260200190815260200160002090506000816004015461271083600501546200103191906200221b565b6200103d919062002295565b905060006200105a60648362001054919062002295565b620013d7565b9050600062001077606484620010719190620022cd565b620013d7565b90506000828260405160200162001090929190620023e7565b60405160208183030381529060405290508095505050505050919050565b620010b86200128e565b600073ffffffffffffffffffffffffffffffffffffffff168173ffffffffffffffffffffffffffffffffffffffff16036200112a576040517f08c379a000000000000000000000000000000000000000000000000000000000815260040162001121906200249f565b60405180910390fd5b620011358162001313565b50565b60016020528060005260406000206000915090508060000180546200115d9062001e1c565b80601f01602080910402602001604051908101604052809291908181526020018280546200118b9062001e1c565b8015620011dc5780601f10620011b057610100808354040283529160200191620011dc565b820191906000526020600020905b815481529060010190602001808311620011be57829003601f168201915b505050505090806001018054620011f39062001e1c565b80601f0160208091040260200160405190810160405280929190818152602001828054620012219062001e1c565b8015620012725780601f10620012465761010080835404028352916020019162001272565b820191906000526020600020905b8154815290600101906020018083116200125457829003601f168201915b5050505050908060030154908060040154908060050154905085565b6200129862001550565b73ffffffffffffffffffffffffffffffffffffffff16620012b862000aa9565b73ffffffffffffffffffffffffffffffffffffffff161462001311576040517f08c379a0000000000000000000000000000000000000000000000000000000008152600401620013089062002511565b60405180910390fd5b565b60008060009054906101000a900473ffffffffffffffffffffffffffffffffffffffff169050816000806101000a81548173ffffffffffffffffffffffffffffffffffffffff021916908373ffffffffffffffffffffffffffffffffffffffff1602179055508173ffffffffffffffffffffffffffffffffffffffff168173ffffffffffffffffffffffffffffffffffffffff167f8be0079c531659141344cd1fd0a4f28419497f9722a3daafe3b4186f6b6457e060405160405180910390a35050565b60606000820362001420576040518060400160405280600181526020017f300000000000000000000000000000000000000000000000000000000000000081525090506200154b565b600082905060005b60008214620014585780806200143e9062001da0565b915050600a8262001450919062002295565b915062001428565b60008167ffffffffffffffff81111562001477576200147662001704565b5b6040519080825280601f01601f191660200182016040528015620014aa5781602001600182028036833780820191505090505b5090505b600085146200154457600182620014c69190620021a3565b9150600a85620014d79190620022cd565b6030620014e5919062001d65565b60f81b818381518110620014fe57620014fd62002533565b5b60200101907effffffffffffffffffffffffffffffffffffffffffffffffffffffffffffff1916908160001a905350600a856200153c919062002295565b9450620014ae565b8093505050505b919050565b600033905090565b828054828255906000526020600020908101928215620015a5579160200282015b82811115620015a457825182908162001593919062002023565b509160200191906001019062001579565b5b509050620015b49190620015c6565b5090565b611adb806200256383390190565b5b80821115620015ea5760008181620015e09190620015ee565b50600101620015c7565b5090565b508054620015fc9062001e1c565b6000825580601f1062001610575062001631565b601f01602090049060005260206000209081019062001630919062001634565b5b50565b5b808211156200164f57600081600090555060010162001635565b5090565b6000604051905090565b600080fd5b600080fd5b6000819050919050565b6200167c8162001667565b81146200168857600080fd5b50565b6000813590506200169c8162001671565b92915050565b60008060408385031215620016bc57620016bb6200165d565b5b6000620016cc858286016200168b565b9250506020620016df858286016200168b565b9150509250929050565b600080fd5b600080fd5b6000601f19601f8301169050919050565b7f4e487b7100000000000000000000000000000000000000000000000000000000600052604160045260246000fd5b6200173e82620016f3565b810181811067ffffffffffffffff8211171562001760576200175f62001704565b5b80604052505050565b60006200177562001653565b905062001783828262001733565b919050565b600067ffffffffffffffff821115620017a657620017a562001704565b5b620017b182620016f3565b9050602081019050919050565b82818337600083830152505050565b6000620017e4620017de8462001788565b62001769565b905082815260208101848484011115620018035762001802620016ee565b5b62001810848285620017be565b509392505050565b600082601f83011262001830576200182f620016e9565b5b813562001842848260208601620017cd565b91505092915050565b600067ffffffffffffffff82111562001869576200186862001704565b5b602082029050602081019050919050565b600080fd5b60006200189662001890846200184b565b62001769565b90508083825260208201905060208402830185811115620018bc57620018bb6200187a565b5b835b818110156200190a57803567ffffffffffffffff811115620018e557620018e4620016e9565b5b808601620018f4898262001818565b85526020850194505050602081019050620018be565b5050509392505050565b600082601f8301126200192c576200192b620016e9565b5b81356200193e8482602086016200187f565b91505092915050565b600080600080608085870312156200196457620019636200165d565b5b600085013567ffffffffffffffff81111562001985576200198462001662565b5b620019938782880162001818565b945050602085013567ffffffffffffffff811115620019b757620019b662001662565b5b620019c58782880162001818565b935050604085013567ffffffffffffffff811115620019e957620019e862001662565b5b620019f78782880162001914565b925050606062001a0a878288016200168b565b91505092959194509250565b60006020828403121562001a2f5762001a2e6200165d565b5b600062001a3f848285016200168b565b91505092915050565b600073ffffffffffffffffffffffffffffffffffffffff82169050919050565b600062001a758262001a48565b9050919050565b62001a878162001a68565b82525050565b600060208201905062001aa4600083018462001a7c565b92915050565b62001ab58162001a68565b811462001ac157600080fd5b50565b60008135905062001ad58162001aaa565b92915050565b6000806040838503121562001af55762001af46200165d565b5b600062001b058582860162001ac4565b925050602062001b18858286016200168b565b9150509250929050565b62001b2d8162001667565b82525050565b600060208201905062001b4a600083018462001b22565b92915050565b600081519050919050565b600082825260208201905092915050565b60005b8381101562001b8c57808201518184015260208101905062001b6f565b60008484015250505050565b600062001ba58262001b50565b62001bb1818562001b5b565b935062001bc381856020860162001b6c565b62001bce81620016f3565b840191505092915050565b6000602082019050818103600083015262001bf5818462001b98565b905092915050565b60006020828403121562001c165762001c156200165d565b5b600062001c268482850162001ac4565b91505092915050565b600060a082019050818103600083015262001c4b818862001b98565b9050818103602083015262001c61818762001b98565b905062001c72604083018662001b22565b62001c81606083018562001b22565b62001c90608083018462001b22565b9695505050505050565b600060408201905062001cb1600083018562001a7c565b62001cc0602083018462001b22565b9392505050565b60008115159050919050565b62001cde8162001cc7565b811462001cea57600080fd5b50565b60008151905062001cfe8162001cd3565b92915050565b60006020828403121562001d1d5762001d1c6200165d565b5b600062001d2d8482850162001ced565b91505092915050565b7f4e487b7100000000000000000000000000000000000000000000000000000000600052601160045260246000fd5b600062001d728262001667565b915062001d7f8362001667565b925082820190508082111562001d9a5762001d9962001d36565b5b92915050565b600062001dad8262001667565b91507fffffffffffffffffffffffffffffffffffffffffffffffffffffffffffffffff820362001de25762001de162001d36565b5b600182019050919050565b7f4e487b7100000000000000000000000000000000000000000000000000000000600052602260045260246000fd5b6000600282049050600182168062001e3557607f821691505b60208210810362001e4b5762001e4a62001ded565b5b50919050565b60008190508160005260206000209050919050565b60006020601f8301049050919050565b600082821b905092915050565b60006008830262001eb57fffffffffffffffffffffffffffffffffffffffffffffffffffffffffffffffff8262001e76565b62001ec1868362001e76565b95508019841693508086168417925050509392505050565b6000819050919050565b600062001f0462001efe62001ef88462001667565b62001ed9565b62001667565b9050919050565b6000819050919050565b62001f208362001ee3565b62001f3862001f2f8262001f0b565b84845462001e83565b825550505050565b600090565b62001f4f62001f40565b62001f5c81848462001f15565b505050565b5b8181101562001f845762001f7860008262001f45565b60018101905062001f62565b5050565b601f82111562001fd35762001f9d8162001e51565b62001fa88462001e66565b8101602085101562001fb8578190505b62001fd062001fc78562001e66565b83018262001f61565b50505b505050565b600082821c905092915050565b600062001ff86000198460080262001fd8565b1980831691505092915050565b600062002013838362001fe5565b9150826002028217905092915050565b6200202e8262001b50565b67ffffffffffffffff8111156200204a576200204962001704565b5b62002056825462001e1c565b6200206382828562001f88565b600060209050601f8311600181146200209b576000841562002086578287015190505b62002092858262002005565b86555062002102565b601f198416620020ab8662001e51565b60005b82811015620020d557848901518255600182019150602085019450602081019050620020ae565b86831015620020f55784890151620020f1601f89168262001fe5565b8355505b6001600288020188555050505b505050505050565b7f5054000000000000000000000000000000000000000000000000000000000000600082015250565b60006200214260028362001b5b565b91506200214f826200210a565b602082019050919050565b6000606082019050818103600083015262002176818562001b98565b905081810360208301526200218b8162002133565b90506200219c604083018462001b22565b9392505050565b6000620021b08262001667565b9150620021bd8362001667565b9250828203905081811115620021d857620021d762001d36565b5b92915050565b6000606082019050620021f5600083018662001a7c565b62002204602083018562001a7c565b62002213604083018462001b22565b949350505050565b6000620022288262001667565b9150620022358362001667565b9250828202620022458162001667565b915082820484148315176200225f576200225e62001d36565b5b5092915050565b7f4e487b7100000000000000000000000000000000000000000000000000000000600052601260045260246000fd5b6000620022a28262001667565b9150620022af8362001667565b925082620022c257620022c162002266565b5b828204905092915050565b6000620022da8262001667565b9150620022e78362001667565b925082620022fa57620022f962002266565b5b828206905092915050565b600081905092915050565b60006200231d8262001b50565b62002329818562002305565b93506200233b81856020860162001b6c565b80840191505092915050565b7f2e00000000000000000000000000000000000000000000000000000000000000600082015250565b60006200237f60018362002305565b91506200238c8262002347565b600182019050919050565b7f2500000000000000000000000000000000000000000000000000000000000000600082015250565b6000620023cf60018362002305565b9150620023dc8262002397565b600182019050919050565b6000620023f5828562002310565b9150620024028262002370565b915062002410828462002310565b91506200241d82620023c0565b91508190509392505050565b7f4f776e61626c653a206e6577206f776e657220697320746865207a65726f206160008201527f6464726573730000000000000000000000000000000000000000000000000000602082015250565b60006200248760268362001b5b565b9150620024948262002429565b604082019050919050565b60006020820190508181036000830152620024ba8162002478565b9050919050565b7f4f776e61626c653a2063616c6c6572206973206e6f7420746865206f776e6572600082015250565b6000620024f960208362001b5b565b91506200250682620024c1565b602082019050919050565b600060208201905081810360008301526200252c81620024ea565b9050919050565b7f4e487b7100000000000000000000000000000000000000000000000000000000600052603260045260246000fdfe60806040523480156200001157600080fd5b5060405162001adb38038062001adb8339818101604052810190620000379190620003bf565b828281600390816200004a91906200069a565b5080600490816200005c91906200069a565b5050506200007133826200007a60201b60201c565b5050506200089c565b600073ffffffffffffffffffffffffffffffffffffffff168273ffffffffffffffffffffffffffffffffffffffff1603620000ec576040517f08c379a0000000000000000000000000000000000000000000000000000000008152600401620000e390620007e2565b60405180910390fd5b6200010060008383620001e760201b60201c565b806002600082825462000114919062000833565b92505081905550806000808473ffffffffffffffffffffffffffffffffffffffff1673ffffffffffffffffffffffffffffffffffffffff168152602001908152602001600020600082825401925050819055508173ffffffffffffffffffffffffffffffffffffffff16600073ffffffffffffffffffffffffffffffffffffffff167fddf252ad1be2c89b69c2b068fc378daa952ba7f163c4a11628f55a4df523b3ef83604051620001c791906200087f565b60405180910390a3620001e360008383620001ec60201b60201c565b5050565b505050565b505050565b6000604051905090565b600080fd5b600080fd5b600080fd5b600080fd5b6000601f19601f8301169050919050565b7f4e487b7100000000000000000000000000000000000000000000000000000000600052604160045260246000fd5b6200025a826200020f565b810181811067ffffffffffffffff821117156200027c576200027b62000220565b5b80604052505050565b600062000291620001f1565b90506200029f82826200024f565b919050565b600067ffffffffffffffff821115620002c257620002c162000220565b5b620002cd826200020f565b9050602081019050919050565b60005b83811015620002fa578082015181840152602081019050620002dd565b60008484015250505050565b60006200031d6200031784620002a4565b62000285565b9050828152602081018484840111156200033c576200033b6200020a565b5b62000349848285620002da565b509392505050565b600082601f83011262000369576200036862000205565b5b81516200037b84826020860162000306565b91505092915050565b6000819050919050565b620003998162000384565b8114620003a557600080fd5b50565b600081519050620003b9816200038e565b92915050565b600080600060608486031215620003db57620003da620001fb565b5b600084015167ffffffffffffffff811115620003fc57620003fb62000200565b5b6200040a8682870162000351565b935050602084015167ffffffffffffffff8111156200042e576200042d62000200565b5b6200043c8682870162000351565b92505060406200044f86828701620003a8565b9150509250925092565b600081519050919050565b7f4e487b7100000000000000000000000000000000000000000000000000000000600052602260045260246000fd5b60006002820490506001821680620004ac57607f821691505b602082108103620004c257620004c162000464565b5b50919050565b60008190508160005260206000209050919050565b60006020601f8301049050919050565b600082821b905092915050565b6000600883026200052c7fffffffffffffffffffffffffffffffffffffffffffffffffffffffffffffffff82620004ed565b620005388683620004ed565b95508019841693508086168417925050509392505050565b6000819050919050565b60006200057b620005756200056f8462000384565b62000550565b62000384565b9050919050565b6000819050919050565b62000597836200055a565b620005af620005a68262000582565b848454620004fa565b825550505050565b600090565b620005c6620005b7565b620005d38184846200058c565b505050565b5b81811015620005fb57620005ef600082620005bc565b600181019050620005d9565b5050565b601f8211156200064a576200061481620004c8565b6200061f84620004dd565b810160208510156200062f578190505b620006476200063e85620004dd565b830182620005d8565b50505b505050565b600082821c905092915050565b60006200066f600019846008026200064f565b1980831691505092915050565b60006200068a83836200065c565b9150826002028217905092915050565b620006a58262000459565b67ffffffffffffffff811115620006c157620006c062000220565b5b620006cd825462000493565b620006da828285620005ff565b600060209050601f831160018114620007125760008415620006fd578287015190505b6200070985826200067c565b86555062000779565b601f1984166200072286620004c8565b60005b828110156200074c5784890151825560018201915060208501945060208101905062000725565b868310156200076c578489015162000768601f8916826200065c565b8355505b6001600288020188555050505b505050505050565b600082825260208201905092915050565b7f45524332303a206d696e7420746f20746865207a65726f206164647265737300600082015250565b6000620007ca601f8362000781565b9150620007d78262000792565b602082019050919050565b60006020820190508181036000830152620007fd81620007bb565b9050919050565b7f4e487b7100000000000000000000000000000000000000000000000000000000600052601160045260246000fd5b6000620008408262000384565b91506200084d8362000384565b925082820190508082111562000868576200086762000804565b5b92915050565b620008798162000384565b82525050565b60006020820190506200089660008301846200086e565b92915050565b61122f80620008ac6000396000f3fe608060405234801561001057600080fd5b50600436106100a95760003560e01c80633950935111610071578063395093511461016857806370a082311461019857806395d89b41146101c8578063a457c2d7146101e6578063a9059cbb14610216578063dd62ed3e14610246576100a9565b806306fdde03146100ae578063095ea7b3146100cc57806318160ddd146100fc57806323b872dd1461011a578063313ce5671461014a575b600080fd5b6100b6610276565b6040516100c39190610b0c565b60405180910390f35b6100e660048036038101906100e19190610bc7565b610308565b6040516100f39190610c22565b60405180910390f35b61010461032b565b6040516101119190610c4c565b60405180910390f35b610134600480360381019061012f9190610c67565b610335565b6040516101419190610c22565b60405180910390f35b610152610364565b60405161015f9190610cd6565b60405180910390f35b610182600480360381019061017d9190610bc7565b61036d565b60405161018f9190610c22565b60405180910390f35b6101b260048036038101906101ad9190610cf1565b6103a4565b6040516101bf9190610c4c565b60405180910390f35b6101d06103ec565b6040516101dd9190610b0c565b60405180910390f35b61020060048036038101906101fb9190610bc7565b61047e565b60405161020d9190610c22565b60405180910390f35b610230600480360381019061022b9190610bc7565b6104f5565b60405161023d9190610c22565b60405180910390f35b610260600480360381019061025b9190610d1e565b610518565b60405161026d9190610c4c565b60405180910390f35b60606003805461028590610d8d565b80601f01602080910402602001604051908101604052809291908181526020018280546102b190610d8d565b80156102fe5780601f106102d3576101008083540402835291602001916102fe565b820191906000526020600020905b8154815290600101906020018083116102e157829003601f168201915b5050505050905090565b60008061031361059f565b90506103208185856105a7565b600191505092915050565b6000600254905090565b60008061034061059f565b905061034d858285610770565b6103588585856107fc565b60019150509392505050565b60006012905090565b60008061037861059f565b905061039981858561038a8589610518565b6103949190610ded565b6105a7565b600191505092915050565b60008060008373ffffffffffffffffffffffffffffffffffffffff1673ffffffffffffffffffffffffffffffffffffffff168152602001908152602001600020549050919050565b6060600480546103fb90610d8d565b80601f016020809104026020016040519081016040528092919081815260200182805461042790610d8d565b80156104745780601f1061044957610100808354040283529160200191610474565b820191906000526020600020905b81548152906001019060200180831161045757829003601f168201915b5050505050905090565b60008061048961059f565b905060006104978286610518565b9050838110156104dc576040517f08c379a00000000000000000000000000000000000000000000000000000000081526004016104d390610e93565b60405180910390fd5b6104e982868684036105a7565b60019250505092915050565b60008061050061059f565b905061050d8185856107fc565b600191505092915050565b6000600160008473ffffffffffffffffffffffffffffffffffffffff1673ffffffffffffffffffffffffffffffffffffffff16815260200190815260200160002060008373ffffffffffffffffffffffffffffffffffffffff1673ffffffffffffffffffffffffffffffffffffffff16815260200190815260200160002054905092915050565b600033905090565b600073ffffffffffffffffffffffffffffffffffffffff168373ffffffffffffffffffffffffffffffffffffffff1603610616576040517f08c379a000000000000000000000000000000000000000000000000000000000815260040161060d90610f25565b60405180910390fd5b600073ffffffffffffffffffffffffffffffffffffffff168273ffffffffffffffffffffffffffffffffffffffff1603610685576040517f08c379a000000000000000000000000000000000000000000000000000000000815260040161067c90610fb7565b60405180910390fd5b80600160008573ffffffffffffffffffffffffffffffffffffffff1673ffffffffffffffffffffffffffffffffffffffff16815260200190815260200160002060008473ffffffffffffffffffffffffffffffffffffffff1673ffffffffffffffffffffffffffffffffffffffff168152602001908152602001600020819055508173ffffffffffffffffffffffffffffffffffffffff168373ffffffffffffffffffffffffffffffffffffffff167f8c5be1e5ebec7d5bd14f71427d1e84f3dd0314c0f7b2291e5b200ac8c7c3b925836040516107639190610c4c565b60405180910390a3505050565b600061077c8484610518565b90507fffffffffffffffffffffffffffffffffffffffffffffffffffffffffffffffff81146107f657818110156107e8576040517f08c379a00000000000000000000000000000000000000000000000000000000081526004016107df90611023565b60405180910390fd5b6107f584848484036105a7565b5b50505050565b600073ffffffffffffffffffffffffffffffffffffffff168373ffffffffffffffffffffffffffffffffffffffff160361086b576040517f08c379a0000000000000000000000000000000000000000000000000000000008152600401610862906110b5565b60405180910390fd5b600073ffffffffffffffffffffffffffffffffffffffff168273ffffffffffffffffffffffffffffffffffffffff16036108da576040517f08c379a00000000000000000000000000000000000000000000000000000000081526004016108d190611147565b60405180910390fd5b6108e5838383610a72565b60008060008573ffffffffffffffffffffffffffffffffffffffff1673ffffffffffffffffffffffffffffffffffffffff1681526020019081526020016000205490508181101561096b576040517f08c379a0000000000000000000000000000000000000000000000000000000008152600401610962906111d9565b60405180910390fd5b8181036000808673ffffffffffffffffffffffffffffffffffffffff1673ffffffffffffffffffffffffffffffffffffffff16815260200190815260200160002081905550816000808573ffffffffffffffffffffffffffffffffffffffff1673ffffffffffffffffffffffffffffffffffffffff168152602001908152602001600020600082825401925050819055508273ffffffffffffffffffffffffffffffffffffffff168473ffffffffffffffffffffffffffffffffffffffff167fddf252ad1be2c89b69c2b068fc378daa952ba7f163c4a11628f55a4df523b3ef84604051610a599190610c4c565b60405180910390a3610a6c848484610a77565b50505050565b505050565b505050565b600081519050919050565b600082825260208201905092915050565b60005b83811015610ab6578082015181840152602081019050610a9b565b60008484015250505050565b6000601f19601f8301169050919050565b6000610ade82610a7c565b610ae88185610a87565b9350610af8818560208601610a98565b610b0181610ac2565b840191505092915050565b60006020820190508181036000830152610b268184610ad3565b905092915050565b600080fd5b600073ffffffffffffffffffffffffffffffffffffffff82169050919050565b6000610b5e82610b33565b9050919050565b610b6e81610b53565b8114610b7957600080fd5b50565b600081359050610b8b81610b65565b92915050565b6000819050919050565b610ba481610b91565b8114610baf57600080fd5b50565b600081359050610bc181610b9b565b92915050565b60008060408385031215610bde57610bdd610b2e565b5b6000610bec85828601610b7c565b9250506020610bfd85828601610bb2565b9150509250929050565b60008115159050919050565b610c1c81610c07565b82525050565b6000602082019050610c376000830184610c13565b92915050565b610c4681610b91565b82525050565b6000602082019050610c616000830184610c3d565b92915050565b600080600060608486031215610c8057610c7f610b2e565b5b6000610c8e86828701610b7c565b9350506020610c9f86828701610b7c565b9250506040610cb086828701610bb2565b9150509250925092565b600060ff82169050919050565b610cd081610cba565b82525050565b6000602082019050610ceb6000830184610cc7565b92915050565b600060208284031215610d0757610d06610b2e565b5b6000610d1584828501610b7c565b91505092915050565b60008060408385031215610d3557610d34610b2e565b5b6000610d4385828601610b7c565b9250506020610d5485828601610b7c565b9150509250929050565b7f4e487b7100000000000000000000000000000000000000000000000000000000600052602260045260246000fd5b60006002820490506001821680610da557607f821691505b602082108103610db857610db7610d5e565b5b50919050565b7f4e487b7100000000000000000000000000000000000000000000000000000000600052601160045260246000fd5b6000610df882610b91565b9150610e0383610b91565b9250828201905080821115610e1b57610e1a610dbe565b5b92915050565b7f45524332303a2064656372656173656420616c6c6f77616e63652062656c6f7760008201527f207a65726f000000000000000000000000000000000000000000000000000000602082015250565b6000610e7d602583610a87565b9150610e8882610e21565b604082019050919050565b60006020820190508181036000830152610eac81610e70565b9050919050565b7f45524332303a20617070726f76652066726f6d20746865207a65726f2061646460008201527f7265737300000000000000000000000000000000000000000000000000000000602082015250565b6000610f0f602483610a87565b9150610f1a82610eb3565b604082019050919050565b60006020820190508181036000830152610f3e81610f02565b9050919050565b7f45524332303a20617070726f766520746f20746865207a65726f20616464726560008201527f7373000000000000000000000000000000000000000000000000000000000000602082015250565b6000610fa1602283610a87565b9150610fac82610f45565b604082019050919050565b60006020820190508181036000830152610fd081610f94565b9050919050565b7f45524332303a20696e73756666696369656e7420616c6c6f77616e6365000000600082015250565b600061100d601d83610a87565b915061101882610fd7565b602082019050919050565b6000602082019050818103600083015261103c81611000565b9050919050565b7f45524332303a207472616e736665722066726f6d20746865207a65726f20616460008201527f6472657373000000000000000000000000000000000000000000000000000000602082015250565b600061109f602583610a87565b91506110aa82611043565b604082019050919050565b600060208201905081810360008301526110ce81611092565b9050919050565b7f45524332303a207472616e7366657220746f20746865207a65726f206164647260008201527f6573730000000000000000000000000000000000000000000000000000000000602082015250565b6000611131602383610a87565b915061113c826110d5565b604082019050919050565b6000602082019050818103600083015261116081611124565b9050919050565b7f45524332303a207472616e7366657220616d6f756e742065786365656473206260008201527f616c616e63650000000000000000000000000000000000000000000000000000602082015250565b60006111c3602683610a87565b91506111ce82611167565b604082019050919050565b600060208201905081810360008301526111f2816111b6565b905091905056fea2646970667358221220d315dfea49f42e9322d41cabb5e26996acd823ae16901e85ae69d6913501946564736f6c63430008120033a2646970667358221220bb70735d452e7f809e7bfdffd6c883aec5dabf9907918d138c9872eac259711c64736f6c63430008120033",
  "linkReferences": {},
  "deployedLinkReferences": {}
}