{
  "_format": "hh-sol-artifact-1",
  "contractName": "CrowdEstate",
  "sourceName": "contracts/CrowdEstate.sol",
  "abi": [
    {
      "inputs": [],
      "stateMutability": "nonpayable",
      "type": "constructor"
    },
    {
      "inputs": [],
      "name": "AmountMustBeGreaterThanZero",
      "type": "error"
    },
    {
      "inputs": [],
      "name": "InsufficientSharesBalance",
      "type": "error"
    },
    {
      "inputs": [],
      "name": "InsufficientSharesToCancel",
      "type": "error"
    },
    {
      "inputs": [],
      "name": "InvalidPropertyId",
      "type": "error"
    },
    {
      "inputs": [],
      "name": "NoBalanceToWithdraw",
      "type": "error"
    },
    {
      "inputs": [],
      "name": "NotEnoughSharesAvailable",
      "type": "error"
    },
    {
      "inputs": [],
      "name": "SentAmountDoesNotMatchShare",
      "type": "error"
    },
    {
      "inputs": [],
      "name": "SharesMustBeGreaterThanZero",
      "type": "error"
    },
    {
      "anonymous": false,
      "inputs": [
        {
          "indexed": true,
          "internalType": "address",
          "name": "previousOwner",
          "type": "address"
        },
        {
          "indexed": true,
          "internalType": "address",
          "name": "newOwner",
          "type": "address"
        }
      ],
      "name": "OwnershipTransferred",
      "type": "event"
    },
    {
      "inputs": [
        {
          "internalType": "string",
          "name": "_name",
          "type": "string"
        },
        {
          "internalType": "string",
          "name": "_location",
          "type": "string"
        },
        {
          "internalType": "string[]",
          "name": "_images",
          "type": "string[]"
        },
        {
          "internalType": "uint256",
          "name": "_shares",
          "type": "uint256"
        }
      ],
      "name": "addProperty",
      "outputs": [],
      "stateMutability": "nonpayable",
      "type": "function"
    },
    {
      "inputs": [
        {
          "internalType": "uint256",
          "name": "_propertyId",
          "type": "uint256"
        }
      ],
      "name": "buyShares",
      "outputs": [],
      "stateMutability": "payable",
      "type": "function"
    },
    {
      "inputs": [
        {
          "internalType": "uint256",
          "name": "_propertyId",
          "type": "uint256"
        },
        {
          "internalType": "uint256",
          "name": "_share",
          "type": "uint256"
        }
      ],
      "name": "cancelSecondarySellShare",
      "outputs": [],
      "stateMutability": "nonpayable",
      "type": "function"
    },
    {
      "inputs": [],
      "name": "owner",
      "outputs": [
        {
          "internalType": "address",
          "name": "",
          "type": "address"
        }
      ],
      "stateMutability": "view",
      "type": "function"
    },
    {
      "inputs": [
        {
          "internalType": "uint256",
          "name": "",
          "type": "uint256"
        }
      ],
      "name": "properties",
      "outputs": [
        {
          "internalType": "string",
          "name": "name",
          "type": "string"
        },
        {
          "internalType": "string",
          "name": "location",
          "type": "string"
        },
        {
          "internalType": "uint256",
          "name": "price",
          "type": "uint256"
        },
        {
          "internalType": "uint256",
          "name": "shares",
          "type": "uint256"
        },
        {
          "internalType": "uint256",
          "name": "soldShares",
          "type": "uint256"
        }
      ],
      "stateMutability": "view",
      "type": "function"
    },
    {
      "inputs": [],
      "name": "propertyCount",
      "outputs": [
        {
          "internalType": "uint256",
          "name": "",
          "type": "uint256"
        }
      ],
      "stateMutability": "view",
      "type": "function"
    },
    {
      "inputs": [],
      "name": "renounceOwnership",
      "outputs": [],
      "stateMutability": "nonpayable",
      "type": "function"
    },
    {
      "inputs": [
        {
          "internalType": "uint256",
          "name": "_propertyId",
          "type": "uint256"
        },
        {
          "internalType": "uint256",
          "name": "_share",
          "type": "uint256"
        }
      ],
      "name": "secondaryBuyShare",
      "outputs": [],
      "stateMutability": "payable",
      "type": "function"
    },
    {
      "inputs": [
        {
          "internalType": "uint256",
          "name": "_propertyId",
          "type": "uint256"
        },
        {
          "internalType": "uint256",
          "name": "_share",
          "type": "uint256"
        }
      ],
      "name": "secondarySellShare",
      "outputs": [],
      "stateMutability": "nonpayable",
      "type": "function"
    },
    {
      "inputs": [
        {
          "internalType": "address",
          "name": "",
          "type": "address"
        },
        {
          "internalType": "uint256",
          "name": "",
          "type": "uint256"
        }
      ],
      "name": "sellShare",
      "outputs": [
        {
          "internalType": "uint256",
          "name": "",
          "type": "uint256"
        }
      ],
      "stateMutability": "view",
      "type": "function"
    },
    {
      "inputs": [
        {
          "internalType": "uint256",
          "name": "",
          "type": "uint256"
        }
      ],
      "name": "tokens",
      "outputs": [
        {
          "internalType": "address",
          "name": "",
          "type": "address"
        }
      ],
      "stateMutability": "view",
      "type": "function"
    },
    {
      "inputs": [
        {
          "internalType": "address",
          "name": "newOwner",
          "type": "address"
        }
      ],
      "name": "transferOwnership",
      "outputs": [],
      "stateMutability": "nonpayable",
      "type": "function"
    },
    {
      "inputs": [],
      "name": "withdraw",
      "outputs": [],
      "stateMutability": "nonpayable",
      "type": "function"
    }
  ],
  "bytecode": "0x608060405234801561001057600080fd5b5061002d61002261003a60201b60201c565b61004260201b60201c565b6000600481905550610106565b600033905090565b60008060009054906101000a900473ffffffffffffffffffffffffffffffffffffffff169050816000806101000a81548173ffffffffffffffffffffffffffffffffffffffff021916908373ffffffffffffffffffffffffffffffffffffffff1602179055508173ffffffffffffffffffffffffffffffffffffffff168173ffffffffffffffffffffffffffffffffffffffff167f8be0079c531659141344cd1fd0a4f28419497f9722a3daafe3b4186f6b6457e060405160405180910390a35050565b613b3c80620001166000396000f3fe608060405260043610620000d45760003560e01c8063715018a6116200008b578063c361a3351162000061578063c361a335146200026f578063d1a93d18146200029f578063f2fde38b14620002bf578063f7b1080814620002ed57620000d4565b8063715018a614620001f75780638da5cb5b1462000211578063b62a8983146200024157620000d4565b806310945c3514620000d9578063360bba5f14620000f95780633ccfd60b14620001275780634f64b2be146200014157806355bd9f35146200018557806369c83fa114620001b3575b600080fd5b620000f76004803603810190620000f19190620013cc565b62000335565b005b3480156200010657600080fd5b506200012560048036038101906200011f919062001671565b62000568565b005b3480156200013457600080fd5b506200013f620006d0565b005b3480156200014e57600080fd5b506200016d600480360381019062000167919062001740565b62000765565b6040516200017c9190620017b7565b60405180910390f35b3480156200019257600080fd5b50620001b16004803603810190620001ab9190620013cc565b62000798565b005b348015620001c057600080fd5b50620001df6004803603810190620001d9919062001805565b62000a0a565b604051620001ee91906200185d565b60405180910390f35b3480156200020457600080fd5b506200020f62000a2f565b005b3480156200021e57600080fd5b506200022962000a47565b604051620002389190620017b7565b60405180910390f35b3480156200024e57600080fd5b506200026d6004803603810190620002679190620013cc565b62000a70565b005b3480156200027c57600080fd5b506200028762000d21565b6040516200029691906200185d565b60405180910390f35b620002bd6004803603810190620002b7919062001740565b62000d27565b005b348015620002cc57600080fd5b50620002eb6004803603810190620002e591906200187a565b62000f51565b005b348015620002fa57600080fd5b5062000319600480360381019062000313919062001740565b62000fdb565b6040516200032c95949392919062001935565b60405180910390f35b6000811162000370576040517f29cd977200000000000000000000000000000000000000000000000000000000815260040160405180910390fd5b60008211158062000382575060045482115b15620003ba576040517f3f7861ea00000000000000000000000000000000000000000000000000000000815260040160405180910390fd5b60003411620003f5576040517f5e85ae7300000000000000000000000000000000000000000000000000000000815260040160405180910390fd5b8034146200042f576040517f2753509100000000000000000000000000000000000000000000000000000000815260040160405180910390fd5b600060016000848152602001908152602001600020905060006002600085815260200190815260200160002060009054906101000a900473ffffffffffffffffffffffffffffffffffffffff16905060008190508073ffffffffffffffffffffffffffffffffffffffff1663a9059cbb33346040518363ffffffff1660e01b8152600401620004c0929190620019a0565b6020604051808303816000875af1158015620004e0573d6000803e3d6000fd5b505050506040513d601f19601f8201168201806040525081019062000506919062001a0a565b50838360060160003373ffffffffffffffffffffffffffffffffffffffff1673ffffffffffffffffffffffffffffffffffffffff16815260200190815260200160002060008282546200055a919062001a6b565b925050819055505050505050565b60008111620005a3576040517f29cd977200000000000000000000000000000000000000000000000000000000815260040160405180910390fd5b60046000815480929190620005b89062001aa6565b91905055506000600160006004548152602001908152602001600020905084816000019081620005e9919062001d29565b5083816001019081620005fd919062001d29565b50828160020190805190602001906200061892919062001282565b5081816003018190555081816004018190555060008160050181905550600085836040516200064790620012e2565b6200065492919062001e60565b604051809103906000f08015801562000671573d6000803e3d6000fd5b5090508060026000600454815260200190815260200160002060006101000a81548173ffffffffffffffffffffffffffffffffffffffff021916908373ffffffffffffffffffffffffffffffffffffffff160217905550505050505050565b620006da62001131565b6000479050600081116200071a576040517fbbd8170800000000000000000000000000000000000000000000000000000000815260040160405180910390fd5b3373ffffffffffffffffffffffffffffffffffffffff166108fc829081150290604051600060405180830381858888f1935050505015801562000761573d6000803e3d6000fd5b5050565b60026020528060005260406000206000915054906101000a900473ffffffffffffffffffffffffffffffffffffffff1681565b60008111620007d3576040517f29cd977200000000000000000000000000000000000000000000000000000000815260040160405180910390fd5b600082111580620007e5575060045482115b156200081d576040517f3f7861ea00000000000000000000000000000000000000000000000000000000815260040160405180910390fd5b60016000838152602001908152602001600020600501548111156200086e576040517f73eae98100000000000000000000000000000000000000000000000000000000815260040160405180910390fd5b806001600084815260200190815260200160002060060160003373ffffffffffffffffffffffffffffffffffffffff1673ffffffffffffffffffffffffffffffffffffffff1681526020019081526020016000206000828254620008d3919062001a6b565b9250508190555080600360003373ffffffffffffffffffffffffffffffffffffffff1673ffffffffffffffffffffffffffffffffffffffff168152602001908152602001600020600084815260200190815260200160002060008282546200093c919062001ea9565b9250508190555060006002600084815260200190815260200160002060009054906101000a900473ffffffffffffffffffffffffffffffffffffffff16905060008190508073ffffffffffffffffffffffffffffffffffffffff1663a9059cbb33856040518363ffffffff1660e01b8152600401620009bd929190620019a0565b6020604051808303816000875af1158015620009dd573d6000803e3d6000fd5b505050506040513d601f19601f8201168201806040525081019062000a03919062001a0a565b5050505050565b6003602052816000526040600020602052806000526040600020600091509150505481565b62000a3962001131565b62000a456000620011b6565b565b60008060009054906101000a900473ffffffffffffffffffffffffffffffffffffffff16905090565b6000811162000aab576040517f29cd977200000000000000000000000000000000000000000000000000000000815260040160405180910390fd5b60008211158062000abd575060045482115b1562000af5576040517f3f7861ea00000000000000000000000000000000000000000000000000000000815260040160405180910390fd5b6001600083815260200190815260200160002060060160003373ffffffffffffffffffffffffffffffffffffffff1673ffffffffffffffffffffffffffffffffffffffff1681526020019081526020016000205481111562000b83576040517f01b9e7c300000000000000000000000000000000000000000000000000000000815260040160405180910390fd5b806001600084815260200190815260200160002060060160003373ffffffffffffffffffffffffffffffffffffffff1673ffffffffffffffffffffffffffffffffffffffff168152602001908152602001600020600082825462000be8919062001ea9565b9250508190555080600360003373ffffffffffffffffffffffffffffffffffffffff1673ffffffffffffffffffffffffffffffffffffffff1681526020019081526020016000206000848152602001908152602001600020600082825462000c51919062001a6b565b9250508190555060006002600084815260200190815260200160002060009054906101000a900473ffffffffffffffffffffffffffffffffffffffff16905060008190508073ffffffffffffffffffffffffffffffffffffffff166323b872dd3330866040518463ffffffff1660e01b815260040162000cd49392919062001ee4565b6020604051808303816000875af115801562000cf4573d6000803e3d6000fd5b505050506040513d601f19601f8201168201806040525081019062000d1a919062001a0a565b5050505050565b60045481565b6000341162000d62576040517f5e85ae7300000000000000000000000000000000000000000000000000000000815260040160405180910390fd5b60008111158062000d74575060045481115b1562000dac576040517f3f7861ea00000000000000000000000000000000000000000000000000000000815260040160405180910390fd5b6000600160008381526020019081526020016000209050806004015434826005015462000dda919062001a6b565b111562000e13576040517fac05a03a00000000000000000000000000000000000000000000000000000000815260040160405180910390fd5b60006002600084815260200190815260200160002060009054906101000a900473ffffffffffffffffffffffffffffffffffffffff16905060008190508073ffffffffffffffffffffffffffffffffffffffff1663a9059cbb33346040518363ffffffff1660e01b815260040162000e8d929190620019a0565b6020604051808303816000875af115801562000ead573d6000803e3d6000fd5b505050506040513d601f19601f8201168201806040525081019062000ed3919062001a0a565b503483600501600082825462000eea919062001a6b565b92505081905550348360060160003373ffffffffffffffffffffffffffffffffffffffff1673ffffffffffffffffffffffffffffffffffffffff168152602001908152602001600020600082825462000f44919062001a6b565b9250508190555050505050565b62000f5b62001131565b600073ffffffffffffffffffffffffffffffffffffffff168173ffffffffffffffffffffffffffffffffffffffff160362000fcd576040517f08c379a000000000000000000000000000000000000000000000000000000000815260040162000fc49062001f97565b60405180910390fd5b62000fd881620011b6565b50565b6001602052806000526040600020600091509050806000018054620010009062001b22565b80601f01602080910402602001604051908101604052809291908181526020018280546200102e9062001b22565b80156200107f5780601f1062001053576101008083540402835291602001916200107f565b820191906000526020600020905b8154815290600101906020018083116200106157829003601f168201915b505050505090806001018054620010969062001b22565b80601f0160208091040260200160405190810160405280929190818152602001828054620010c49062001b22565b8015620011155780601f10620010e95761010080835404028352916020019162001115565b820191906000526020600020905b815481529060010190602001808311620010f757829003601f168201915b5050505050908060030154908060040154908060050154905085565b6200113b6200127a565b73ffffffffffffffffffffffffffffffffffffffff166200115b62000a47565b73ffffffffffffffffffffffffffffffffffffffff1614620011b4576040517f08c379a0000000000000000000000000000000000000000000000000000000008152600401620011ab9062002009565b60405180910390fd5b565b60008060009054906101000a900473ffffffffffffffffffffffffffffffffffffffff169050816000806101000a81548173ffffffffffffffffffffffffffffffffffffffff021916908373ffffffffffffffffffffffffffffffffffffffff1602179055508173ffffffffffffffffffffffffffffffffffffffff168173ffffffffffffffffffffffffffffffffffffffff167f8be0079c531659141344cd1fd0a4f28419497f9722a3daafe3b4186f6b6457e060405160405180910390a35050565b600033905090565b828054828255906000526020600020908101928215620012cf579160200282015b82811115620012ce578251829081620012bd919062001d29565b5091602001919060010190620012a3565b5b509050620012de9190620012f0565b5090565b611adb806200202c83390190565b5b808211156200131457600081816200130a919062001318565b50600101620012f1565b5090565b508054620013269062001b22565b6000825580601f106200133a57506200135b565b601f0160209004906000526020600020908101906200135a91906200135e565b5b50565b5b80821115620013795760008160009055506001016200135f565b5090565b6000604051905090565b600080fd5b600080fd5b6000819050919050565b620013a68162001391565b8114620013b257600080fd5b50565b600081359050620013c6816200139b565b92915050565b60008060408385031215620013e657620013e562001387565b5b6000620013f685828601620013b5565b92505060206200140985828601620013b5565b9150509250929050565b600080fd5b600080fd5b6000601f19601f8301169050919050565b7f4e487b7100000000000000000000000000000000000000000000000000000000600052604160045260246000fd5b62001468826200141d565b810181811067ffffffffffffffff821117156200148a57620014896200142e565b5b80604052505050565b60006200149f6200137d565b9050620014ad82826200145d565b919050565b600067ffffffffffffffff821115620014d057620014cf6200142e565b5b620014db826200141d565b9050602081019050919050565b82818337600083830152505050565b60006200150e6200150884620014b2565b62001493565b9050828152602081018484840111156200152d576200152c62001418565b5b6200153a848285620014e8565b509392505050565b600082601f8301126200155a576200155962001413565b5b81356200156c848260208601620014f7565b91505092915050565b600067ffffffffffffffff8211156200159357620015926200142e565b5b602082029050602081019050919050565b600080fd5b6000620015c0620015ba8462001575565b62001493565b90508083825260208201905060208402830185811115620015e657620015e5620015a4565b5b835b818110156200163457803567ffffffffffffffff8111156200160f576200160e62001413565b5b8086016200161e898262001542565b85526020850194505050602081019050620015e8565b5050509392505050565b600082601f83011262001656576200165562001413565b5b813562001668848260208601620015a9565b91505092915050565b600080600080608085870312156200168e576200168d62001387565b5b600085013567ffffffffffffffff811115620016af57620016ae6200138c565b5b620016bd8782880162001542565b945050602085013567ffffffffffffffff811115620016e157620016e06200138c565b5b620016ef8782880162001542565b935050604085013567ffffffffffffffff8111156200171357620017126200138c565b5b62001721878288016200163e565b92505060606200173487828801620013b5565b91505092959194509250565b60006020828403121562001759576200175862001387565b5b60006200176984828501620013b5565b91505092915050565b600073ffffffffffffffffffffffffffffffffffffffff82169050919050565b60006200179f8262001772565b9050919050565b620017b18162001792565b82525050565b6000602082019050620017ce6000830184620017a6565b92915050565b620017df8162001792565b8114620017eb57600080fd5b50565b600081359050620017ff81620017d4565b92915050565b600080604083850312156200181f576200181e62001387565b5b60006200182f85828601620017ee565b92505060206200184285828601620013b5565b9150509250929050565b620018578162001391565b82525050565b60006020820190506200187460008301846200184c565b92915050565b60006020828403121562001893576200189262001387565b5b6000620018a384828501620017ee565b91505092915050565b600081519050919050565b600082825260208201905092915050565b60005b83811015620018e8578082015181840152602081019050620018cb565b60008484015250505050565b60006200190182620018ac565b6200190d8185620018b7565b93506200191f818560208601620018c8565b6200192a816200141d565b840191505092915050565b600060a0820190508181036000830152620019518188620018f4565b90508181036020830152620019678187620018f4565b90506200197860408301866200184c565b6200198760608301856200184c565b6200199660808301846200184c565b9695505050505050565b6000604082019050620019b76000830185620017a6565b620019c660208301846200184c565b9392505050565b60008115159050919050565b620019e481620019cd565b8114620019f057600080fd5b50565b60008151905062001a0481620019d9565b92915050565b60006020828403121562001a235762001a2262001387565b5b600062001a3384828501620019f3565b91505092915050565b7f4e487b7100000000000000000000000000000000000000000000000000000000600052601160045260246000fd5b600062001a788262001391565b915062001a858362001391565b925082820190508082111562001aa05762001a9f62001a3c565b5b92915050565b600062001ab38262001391565b91507fffffffffffffffffffffffffffffffffffffffffffffffffffffffffffffffff820362001ae85762001ae762001a3c565b5b600182019050919050565b7f4e487b7100000000000000000000000000000000000000000000000000000000600052602260045260246000fd5b6000600282049050600182168062001b3b57607f821691505b60208210810362001b515762001b5062001af3565b5b50919050565b60008190508160005260206000209050919050565b60006020601f8301049050919050565b600082821b905092915050565b60006008830262001bbb7fffffffffffffffffffffffffffffffffffffffffffffffffffffffffffffffff8262001b7c565b62001bc7868362001b7c565b95508019841693508086168417925050509392505050565b6000819050919050565b600062001c0a62001c0462001bfe8462001391565b62001bdf565b62001391565b9050919050565b6000819050919050565b62001c268362001be9565b62001c3e62001c358262001c11565b84845462001b89565b825550505050565b600090565b62001c5562001c46565b62001c6281848462001c1b565b505050565b5b8181101562001c8a5762001c7e60008262001c4b565b60018101905062001c68565b5050565b601f82111562001cd95762001ca38162001b57565b62001cae8462001b6c565b8101602085101562001cbe578190505b62001cd662001ccd8562001b6c565b83018262001c67565b50505b505050565b600082821c905092915050565b600062001cfe6000198460080262001cde565b1980831691505092915050565b600062001d19838362001ceb565b9150826002028217905092915050565b62001d3482620018ac565b67ffffffffffffffff81111562001d505762001d4f6200142e565b5b62001d5c825462001b22565b62001d6982828562001c8e565b600060209050601f83116001811462001da1576000841562001d8c578287015190505b62001d98858262001d0b565b86555062001e08565b601f19841662001db18662001b57565b60005b8281101562001ddb5784890151825560018201915060208501945060208101905062001db4565b8683101562001dfb578489015162001df7601f89168262001ceb565b8355505b6001600288020188555050505b505050505050565b7f5054000000000000000000000000000000000000000000000000000000000000600082015250565b600062001e48600283620018b7565b915062001e558262001e10565b602082019050919050565b6000606082019050818103600083015262001e7c8185620018f4565b9050818103602083015262001e918162001e39565b905062001ea260408301846200184c565b9392505050565b600062001eb68262001391565b915062001ec38362001391565b925082820390508181111562001ede5762001edd62001a3c565b5b92915050565b600060608201905062001efb6000830186620017a6565b62001f0a6020830185620017a6565b62001f1960408301846200184c565b949350505050565b7f4f776e61626c653a206e6577206f776e657220697320746865207a65726f206160008201527f6464726573730000000000000000000000000000000000000000000000000000602082015250565b600062001f7f602683620018b7565b915062001f8c8262001f21565b604082019050919050565b6000602082019050818103600083015262001fb28162001f70565b9050919050565b7f4f776e61626c653a2063616c6c6572206973206e6f7420746865206f776e6572600082015250565b600062001ff1602083620018b7565b915062001ffe8262001fb9565b602082019050919050565b60006020820190508181036000830152620020248162001fe2565b905091905056fe60806040523480156200001157600080fd5b5060405162001adb38038062001adb8339818101604052810190620000379190620003bf565b828281600390816200004a91906200069a565b5080600490816200005c91906200069a565b5050506200007133826200007a60201b60201c565b5050506200089c565b600073ffffffffffffffffffffffffffffffffffffffff168273ffffffffffffffffffffffffffffffffffffffff1603620000ec576040517f08c379a0000000000000000000000000000000000000000000000000000000008152600401620000e390620007e2565b60405180910390fd5b6200010060008383620001e760201b60201c565b806002600082825462000114919062000833565b92505081905550806000808473ffffffffffffffffffffffffffffffffffffffff1673ffffffffffffffffffffffffffffffffffffffff168152602001908152602001600020600082825401925050819055508173ffffffffffffffffffffffffffffffffffffffff16600073ffffffffffffffffffffffffffffffffffffffff167fddf252ad1be2c89b69c2b068fc378daa952ba7f163c4a11628f55a4df523b3ef83604051620001c791906200087f565b60405180910390a3620001e360008383620001ec60201b60201c565b5050565b505050565b505050565b6000604051905090565b600080fd5b600080fd5b600080fd5b600080fd5b6000601f19601f8301169050919050565b7f4e487b7100000000000000000000000000000000000000000000000000000000600052604160045260246000fd5b6200025a826200020f565b810181811067ffffffffffffffff821117156200027c576200027b62000220565b5b80604052505050565b600062000291620001f1565b90506200029f82826200024f565b919050565b600067ffffffffffffffff821115620002c257620002c162000220565b5b620002cd826200020f565b9050602081019050919050565b60005b83811015620002fa578082015181840152602081019050620002dd565b60008484015250505050565b60006200031d6200031784620002a4565b62000285565b9050828152602081018484840111156200033c576200033b6200020a565b5b62000349848285620002da565b509392505050565b600082601f83011262000369576200036862000205565b5b81516200037b84826020860162000306565b91505092915050565b6000819050919050565b620003998162000384565b8114620003a557600080fd5b50565b600081519050620003b9816200038e565b92915050565b600080600060608486031215620003db57620003da620001fb565b5b600084015167ffffffffffffffff811115620003fc57620003fb62000200565b5b6200040a8682870162000351565b935050602084015167ffffffffffffffff8111156200042e576200042d62000200565b5b6200043c8682870162000351565b92505060406200044f86828701620003a8565b9150509250925092565b600081519050919050565b7f4e487b7100000000000000000000000000000000000000000000000000000000600052602260045260246000fd5b60006002820490506001821680620004ac57607f821691505b602082108103620004c257620004c162000464565b5b50919050565b60008190508160005260206000209050919050565b60006020601f8301049050919050565b600082821b905092915050565b6000600883026200052c7fffffffffffffffffffffffffffffffffffffffffffffffffffffffffffffffff82620004ed565b620005388683620004ed565b95508019841693508086168417925050509392505050565b6000819050919050565b60006200057b620005756200056f8462000384565b62000550565b62000384565b9050919050565b6000819050919050565b62000597836200055a565b620005af620005a68262000582565b848454620004fa565b825550505050565b600090565b620005c6620005b7565b620005d38184846200058c565b505050565b5b81811015620005fb57620005ef600082620005bc565b600181019050620005d9565b5050565b601f8211156200064a576200061481620004c8565b6200061f84620004dd565b810160208510156200062f578190505b620006476200063e85620004dd565b830182620005d8565b50505b505050565b600082821c905092915050565b60006200066f600019846008026200064f565b1980831691505092915050565b60006200068a83836200065c565b9150826002028217905092915050565b620006a58262000459565b67ffffffffffffffff811115620006c157620006c062000220565b5b620006cd825462000493565b620006da828285620005ff565b600060209050601f831160018114620007125760008415620006fd578287015190505b6200070985826200067c565b86555062000779565b601f1984166200072286620004c8565b60005b828110156200074c5784890151825560018201915060208501945060208101905062000725565b868310156200076c578489015162000768601f8916826200065c565b8355505b6001600288020188555050505b505050505050565b600082825260208201905092915050565b7f45524332303a206d696e7420746f20746865207a65726f206164647265737300600082015250565b6000620007ca601f8362000781565b9150620007d78262000792565b602082019050919050565b60006020820190508181036000830152620007fd81620007bb565b9050919050565b7f4e487b7100000000000000000000000000000000000000000000000000000000600052601160045260246000fd5b6000620008408262000384565b91506200084d8362000384565b925082820190508082111562000868576200086762000804565b5b92915050565b620008798162000384565b82525050565b60006020820190506200089660008301846200086e565b92915050565b61122f80620008ac6000396000f3fe608060405234801561001057600080fd5b50600436106100a95760003560e01c80633950935111610071578063395093511461016857806370a082311461019857806395d89b41146101c8578063a457c2d7146101e6578063a9059cbb14610216578063dd62ed3e14610246576100a9565b806306fdde03146100ae578063095ea7b3146100cc57806318160ddd146100fc57806323b872dd1461011a578063313ce5671461014a575b600080fd5b6100b6610276565b6040516100c39190610b0c565b60405180910390f35b6100e660048036038101906100e19190610bc7565b610308565b6040516100f39190610c22565b60405180910390f35b61010461032b565b6040516101119190610c4c565b60405180910390f35b610134600480360381019061012f9190610c67565b610335565b6040516101419190610c22565b60405180910390f35b610152610364565b60405161015f9190610cd6565b60405180910390f35b610182600480360381019061017d9190610bc7565b61036d565b60405161018f9190610c22565b60405180910390f35b6101b260048036038101906101ad9190610cf1565b6103a4565b6040516101bf9190610c4c565b60405180910390f35b6101d06103ec565b6040516101dd9190610b0c565b60405180910390f35b61020060048036038101906101fb9190610bc7565b61047e565b60405161020d9190610c22565b60405180910390f35b610230600480360381019061022b9190610bc7565b6104f5565b60405161023d9190610c22565b60405180910390f35b610260600480360381019061025b9190610d1e565b610518565b60405161026d9190610c4c565b60405180910390f35b60606003805461028590610d8d565b80601f01602080910402602001604051908101604052809291908181526020018280546102b190610d8d565b80156102fe5780601f106102d3576101008083540402835291602001916102fe565b820191906000526020600020905b8154815290600101906020018083116102e157829003601f168201915b5050505050905090565b60008061031361059f565b90506103208185856105a7565b600191505092915050565b6000600254905090565b60008061034061059f565b905061034d858285610770565b6103588585856107fc565b60019150509392505050565b60006012905090565b60008061037861059f565b905061039981858561038a8589610518565b6103949190610ded565b6105a7565b600191505092915050565b60008060008373ffffffffffffffffffffffffffffffffffffffff1673ffffffffffffffffffffffffffffffffffffffff168152602001908152602001600020549050919050565b6060600480546103fb90610d8d565b80601f016020809104026020016040519081016040528092919081815260200182805461042790610d8d565b80156104745780601f1061044957610100808354040283529160200191610474565b820191906000526020600020905b81548152906001019060200180831161045757829003601f168201915b5050505050905090565b60008061048961059f565b905060006104978286610518565b9050838110156104dc576040517f08c379a00000000000000000000000000000000000000000000000000000000081526004016104d390610e93565b60405180910390fd5b6104e982868684036105a7565b60019250505092915050565b60008061050061059f565b905061050d8185856107fc565b600191505092915050565b6000600160008473ffffffffffffffffffffffffffffffffffffffff1673ffffffffffffffffffffffffffffffffffffffff16815260200190815260200160002060008373ffffffffffffffffffffffffffffffffffffffff1673ffffffffffffffffffffffffffffffffffffffff16815260200190815260200160002054905092915050565b600033905090565b600073ffffffffffffffffffffffffffffffffffffffff168373ffffffffffffffffffffffffffffffffffffffff1603610616576040517f08c379a000000000000000000000000000000000000000000000000000000000815260040161060d90610f25565b60405180910390fd5b600073ffffffffffffffffffffffffffffffffffffffff168273ffffffffffffffffffffffffffffffffffffffff1603610685576040517f08c379a000000000000000000000000000000000000000000000000000000000815260040161067c90610fb7565b60405180910390fd5b80600160008573ffffffffffffffffffffffffffffffffffffffff1673ffffffffffffffffffffffffffffffffffffffff16815260200190815260200160002060008473ffffffffffffffffffffffffffffffffffffffff1673ffffffffffffffffffffffffffffffffffffffff168152602001908152602001600020819055508173ffffffffffffffffffffffffffffffffffffffff168373ffffffffffffffffffffffffffffffffffffffff167f8c5be1e5ebec7d5bd14f71427d1e84f3dd0314c0f7b2291e5b200ac8c7c3b925836040516107639190610c4c565b60405180910390a3505050565b600061077c8484610518565b90507fffffffffffffffffffffffffffffffffffffffffffffffffffffffffffffffff81146107f657818110156107e8576040517f08c379a00000000000000000000000000000000000000000000000000000000081526004016107df90611023565b60405180910390fd5b6107f584848484036105a7565b5b50505050565b600073ffffffffffffffffffffffffffffffffffffffff168373ffffffffffffffffffffffffffffffffffffffff160361086b576040517f08c379a0000000000000000000000000000000000000000000000000000000008152600401610862906110b5565b60405180910390fd5b600073ffffffffffffffffffffffffffffffffffffffff168273ffffffffffffffffffffffffffffffffffffffff16036108da576040517f08c379a00000000000000000000000000000000000000000000000000000000081526004016108d190611147565b60405180910390fd5b6108e5838383610a72565b60008060008573ffffffffffffffffffffffffffffffffffffffff1673ffffffffffffffffffffffffffffffffffffffff1681526020019081526020016000205490508181101561096b576040517f08c379a0000000000000000000000000000000000000000000000000000000008152600401610962906111d9565b60405180910390fd5b8181036000808673ffffffffffffffffffffffffffffffffffffffff1673ffffffffffffffffffffffffffffffffffffffff16815260200190815260200160002081905550816000808573ffffffffffffffffffffffffffffffffffffffff1673ffffffffffffffffffffffffffffffffffffffff168152602001908152602001600020600082825401925050819055508273ffffffffffffffffffffffffffffffffffffffff168473ffffffffffffffffffffffffffffffffffffffff167fddf252ad1be2c89b69c2b068fc378daa952ba7f163c4a11628f55a4df523b3ef84604051610a599190610c4c565b60405180910390a3610a6c848484610a77565b50505050565b505050565b505050565b600081519050919050565b600082825260208201905092915050565b60005b83811015610ab6578082015181840152602081019050610a9b565b60008484015250505050565b6000601f19601f8301169050919050565b6000610ade82610a7c565b610ae88185610a87565b9350610af8818560208601610a98565b610b0181610ac2565b840191505092915050565b60006020820190508181036000830152610b268184610ad3565b905092915050565b600080fd5b600073ffffffffffffffffffffffffffffffffffffffff82169050919050565b6000610b5e82610b33565b9050919050565b610b6e81610b53565b8114610b7957600080fd5b50565b600081359050610b8b81610b65565b92915050565b6000819050919050565b610ba481610b91565b8114610baf57600080fd5b50565b600081359050610bc181610b9b565b92915050565b60008060408385031215610bde57610bdd610b2e565b5b6000610bec85828601610b7c565b9250506020610bfd85828601610bb2565b9150509250929050565b60008115159050919050565b610c1c81610c07565b82525050565b6000602082019050610c376000830184610c13565b92915050565b610c4681610b91565b82525050565b6000602082019050610c616000830184610c3d565b92915050565b600080600060608486031215610c8057610c7f610b2e565b5b6000610c8e86828701610b7c565b9350506020610c9f86828701610b7c565b9250506040610cb086828701610bb2565b9150509250925092565b600060ff82169050919050565b610cd081610cba565b82525050565b6000602082019050610ceb6000830184610cc7565b92915050565b600060208284031215610d0757610d06610b2e565b5b6000610d1584828501610b7c565b91505092915050565b60008060408385031215610d3557610d34610b2e565b5b6000610d4385828601610b7c565b9250506020610d5485828601610b7c565b9150509250929050565b7f4e487b7100000000000000000000000000000000000000000000000000000000600052602260045260246000fd5b60006002820490506001821680610da557607f821691505b602082108103610db857610db7610d5e565b5b50919050565b7f4e487b7100000000000000000000000000000000000000000000000000000000600052601160045260246000fd5b6000610df882610b91565b9150610e0383610b91565b9250828201905080821115610e1b57610e1a610dbe565b5b92915050565b7f45524332303a2064656372656173656420616c6c6f77616e63652062656c6f7760008201527f207a65726f000000000000000000000000000000000000000000000000000000602082015250565b6000610e7d602583610a87565b9150610e8882610e21565b604082019050919050565b60006020820190508181036000830152610eac81610e70565b9050919050565b7f45524332303a20617070726f76652066726f6d20746865207a65726f2061646460008201527f7265737300000000000000000000000000000000000000000000000000000000602082015250565b6000610f0f602483610a87565b9150610f1a82610eb3565b604082019050919050565b60006020820190508181036000830152610f3e81610f02565b9050919050565b7f45524332303a20617070726f766520746f20746865207a65726f20616464726560008201527f7373000000000000000000000000000000000000000000000000000000000000602082015250565b6000610fa1602283610a87565b9150610fac82610f45565b604082019050919050565b60006020820190508181036000830152610fd081610f94565b9050919050565b7f45524332303a20696e73756666696369656e7420616c6c6f77616e6365000000600082015250565b600061100d601d83610a87565b915061101882610fd7565b602082019050919050565b6000602082019050818103600083015261103c81611000565b9050919050565b7f45524332303a207472616e736665722066726f6d20746865207a65726f20616460008201527f6472657373000000000000000000000000000000000000000000000000000000602082015250565b600061109f602583610a87565b91506110aa82611043565b604082019050919050565b600060208201905081810360008301526110ce81611092565b9050919050565b7f45524332303a207472616e7366657220746f20746865207a65726f206164647260008201527f6573730000000000000000000000000000000000000000000000000000000000602082015250565b6000611131602383610a87565b915061113c826110d5565b604082019050919050565b6000602082019050818103600083015261116081611124565b9050919050565b7f45524332303a207472616e7366657220616d6f756e742065786365656473206260008201527f616c616e63650000000000000000000000000000000000000000000000000000602082015250565b60006111c3602683610a87565b91506111ce82611167565b604082019050919050565b600060208201905081810360008301526111f2816111b6565b905091905056fea2646970667358221220d315dfea49f42e9322d41cabb5e26996acd823ae16901e85ae69d6913501946564736f6c63430008120033a2646970667358221220f2d81134069a9f732d05d219a48249080d7f124fbb32eefc72b1b4cd3bb4f15464736f6c63430008120033",
  "linkReferences": {},
  "deployedLinkReferences": {}
}